{
  "contractName": "ElemonShop",
  "abi": [
    {
      "inputs": [
        {
          "internalType": "address",
          "name": "nftAddress",
          "type": "address"
        }
      ],
      "stateMutability": "nonpayable",
      "type": "constructor"
    },
    {
      "anonymous": false,
      "inputs": [
        {
          "indexed": true,
          "internalType": "address",
          "name": "previousOwner",
          "type": "address"
        },
        {
          "indexed": true,
          "internalType": "address",
          "name": "newOwner",
          "type": "address"
        }
      ],
      "name": "OwnershipTransferred",
      "type": "event"
    },
    {
      "anonymous": false,
      "inputs": [
        {
          "indexed": false,
          "internalType": "address",
          "name": "account",
          "type": "address"
        },
        {
          "indexed": false,
          "internalType": "uint256",
          "name": "tokenId",
          "type": "uint256"
        },
        {
          "indexed": false,
          "internalType": "uint256",
          "name": "price",
          "type": "uint256"
        },
        {
          "indexed": false,
          "internalType": "uint256",
          "name": "time",
          "type": "uint256"
        }
      ],
      "name": "Purchased",
      "type": "event"
    },
    {
      "inputs": [],
      "name": "_elemonNft",
      "outputs": [
        {
          "internalType": "contract IElemonNFT",
          "name": "",
          "type": "address"
        }
      ],
      "stateMutability": "view",
      "type": "function"
    },
    {
      "inputs": [],
      "name": "_isRunning",
      "outputs": [
        {
          "internalType": "bool",
          "name": "",
          "type": "bool"
        }
      ],
      "stateMutability": "view",
      "type": "function"
    },
    {
      "inputs": [
        {
          "internalType": "uint256",
          "name": "",
          "type": "uint256"
        }
      ],
      "name": "_isSold",
      "outputs": [
        {
          "internalType": "bool",
          "name": "",
          "type": "bool"
        }
      ],
      "stateMutability": "view",
      "type": "function"
    },
    {
      "inputs": [
        {
          "internalType": "uint256",
          "name": "",
          "type": "uint256"
        }
      ],
      "name": "_starPrices",
      "outputs": [
        {
          "internalType": "uint256",
          "name": "",
          "type": "uint256"
        }
      ],
      "stateMutability": "view",
      "type": "function"
    },
    {
      "inputs": [
        {
          "internalType": "uint256",
          "name": "",
          "type": "uint256"
        }
      ],
      "name": "_tokenStars",
      "outputs": [
        {
          "internalType": "uint256",
          "name": "",
          "type": "uint256"
        }
      ],
      "stateMutability": "view",
      "type": "function"
    },
    {
      "inputs": [],
      "name": "owner",
      "outputs": [
        {
          "internalType": "address",
          "name": "",
          "type": "address"
        }
      ],
      "stateMutability": "view",
      "type": "function"
    },
    {
      "inputs": [],
      "name": "renounceOwnership",
      "outputs": [],
      "stateMutability": "nonpayable",
      "type": "function"
    },
    {
      "inputs": [],
      "name": "toggleRunning",
      "outputs": [],
      "stateMutability": "nonpayable",
      "type": "function"
    },
    {
      "inputs": [
        {
          "internalType": "address",
          "name": "newOwner",
          "type": "address"
        }
      ],
      "name": "transferOwnership",
      "outputs": [],
      "stateMutability": "nonpayable",
      "type": "function"
    },
    {
      "inputs": [
        {
          "internalType": "address",
          "name": "newAddress",
          "type": "address"
        }
      ],
      "name": "setElemonNft",
      "outputs": [],
      "stateMutability": "nonpayable",
      "type": "function"
    },
    {
      "inputs": [
        {
          "internalType": "uint256",
          "name": "star",
          "type": "uint256"
        },
        {
          "internalType": "uint256",
          "name": "price",
          "type": "uint256"
        }
      ],
      "name": "setStarPrice",
      "outputs": [],
      "stateMutability": "nonpayable",
      "type": "function"
    },
    {
      "inputs": [
        {
          "internalType": "uint256[]",
          "name": "stars",
          "type": "uint256[]"
        },
        {
          "internalType": "uint256[]",
          "name": "prices",
          "type": "uint256[]"
        }
      ],
      "name": "setStarPriceMultiple",
      "outputs": [],
      "stateMutability": "nonpayable",
      "type": "function"
    },
    {
      "inputs": [
        {
          "internalType": "uint256",
          "name": "tokenId",
          "type": "uint256"
        },
        {
          "internalType": "uint256",
          "name": "star",
          "type": "uint256"
        }
      ],
      "name": "setTokenStar",
      "outputs": [],
      "stateMutability": "nonpayable",
      "type": "function"
    },
    {
      "inputs": [
        {
          "internalType": "uint256[]",
          "name": "tokenIds",
          "type": "uint256[]"
        },
        {
          "internalType": "uint256[]",
          "name": "stars",
          "type": "uint256[]"
        }
      ],
      "name": "setTokenStarMultiple",
      "outputs": [],
      "stateMutability": "nonpayable",
      "type": "function"
    },
    {
      "inputs": [
        {
          "internalType": "uint256",
          "name": "tokenId",
          "type": "uint256"
        }
      ],
      "name": "getTokenPrice",
      "outputs": [
        {
          "internalType": "uint256",
          "name": "",
          "type": "uint256"
        }
      ],
      "stateMutability": "view",
      "type": "function"
    },
    {
      "inputs": [
        {
          "internalType": "uint256",
          "name": "tokenId",
          "type": "uint256"
        }
      ],
      "name": "purchase",
      "outputs": [
        {
          "internalType": "bool",
          "name": "",
          "type": "bool"
        }
      ],
      "stateMutability": "payable",
      "type": "function"
    },
    {
      "inputs": [
        {
          "internalType": "address",
          "name": "tokenAddress",
          "type": "address"
        }
      ],
      "name": "withdrawToken",
      "outputs": [],
      "stateMutability": "nonpayable",
      "type": "function"
    },
    {
      "inputs": [
        {
          "internalType": "address",
          "name": "newOwner",
          "type": "address"
        }
      ],
      "name": "setNftContractOwner",
      "outputs": [],
      "stateMutability": "nonpayable",
      "type": "function"
    },
    {
      "inputs": [],
      "name": "withdrawBnb",
      "outputs": [],
      "stateMutability": "nonpayable",
      "type": "function"
    },
    {
      "inputs": [
        {
          "internalType": "address",
          "name": "operator",
          "type": "address"
        },
        {
          "internalType": "address",
          "name": "from",
          "type": "address"
        },
        {
          "internalType": "uint256",
          "name": "tokenId",
          "type": "uint256"
        },
        {
          "internalType": "bytes",
          "name": "data",
          "type": "bytes"
        }
      ],
      "name": "onERC721Received",
      "outputs": [
        {
          "internalType": "bytes4",
          "name": "",
          "type": "bytes4"
        }
      ],
      "stateMutability": "view",
      "type": "function"
    }
  ],
  "bytecode": "0x60806040523480156200001157600080fd5b50604051620025fb380380620025fb833981810160405281019062000037919062000172565b620000476200015360201b60201c565b6000806101000a81548173ffffffffffffffffffffffffffffffffffffffff021916908373ffffffffffffffffffffffffffffffffffffffff160217905550620000966200015360201b60201c565b73ffffffffffffffffffffffffffffffffffffffff16600073ffffffffffffffffffffffffffffffffffffffff167f8be0079c531659141344cd1fd0a4f28419497f9722a3daafe3b4186f6b6457e060405160405180910390a36001600060146101000a81548160ff02191690831515021790555080600160006101000a81548173ffffffffffffffffffffffffffffffffffffffff021916908373ffffffffffffffffffffffffffffffffffffffff16021790555050620001f7565b600033905090565b6000815190506200016c81620001dd565b92915050565b6000602082840312156200018b576200018a620001d8565b5b60006200019b848285016200015b565b91505092915050565b6000620001b182620001b8565b9050919050565b600073ffffffffffffffffffffffffffffffffffffffff82169050919050565b600080fd5b620001e881620001a4565b8114620001f457600080fd5b50565b6123f480620002076000396000f3fe60806040526004361061011f5760003560e01c806389476069116100a0578063c457fb3711610064578063c457fb37146103ab578063d9d332c4146103e8578063eee6800314610411578063efef39a11461043a578063f2fde38b1461046a5761011f565b806389476069146102b45780638da5cb5b146102dd5780639699d91e146103085780639c4be4ae14610345578063a0cae0d4146103825761011f565b806330ae8c69116100e757806330ae8c69146101f55780633664e1541461022057806358d45c171461024957806362ef5ef014610274578063715018a61461029d5761011f565b806303dedb12146101245780630453f1871461013b578063150b7a02146101785780631da0603a146101b557806320138ac2146101cc575b600080fd5b34801561013057600080fd5b50610139610493565b005b34801561014757600080fd5b50610162600480360381019061015d9190611a40565b610554565b60405161016f9190611f26565b60405180910390f35b34801561018457600080fd5b5061019f600480360381019061019a9190611913565b61056c565b6040516101ac9190611d90565b60405180910390f35b3480156101c157600080fd5b506101ca61059a565b005b3480156101d857600080fd5b506101f360048036038101906101ee91906118e6565b6106c2565b005b34801561020157600080fd5b5061020a6107e7565b6040516102179190611dab565b60405180910390f35b34801561022c57600080fd5b506102476004803603810190610242919061199b565b61080d565b005b34801561025557600080fd5b5061025e6109f7565b60405161026b9190611d75565b60405180910390f35b34801561028057600080fd5b5061029b600480360381019061029691906118e6565b610a0a565b005b3480156102a957600080fd5b506102b2610b53565b005b3480156102c057600080fd5b506102db60048036038101906102d691906118e6565b610ca6565b005b3480156102e957600080fd5b506102f2610e61565b6040516102ff9190611cb5565b60405180910390f35b34801561031457600080fd5b5061032f600480360381019061032a9190611a40565b610e8a565b60405161033c9190611f26565b60405180910390f35b34801561035157600080fd5b5061036c60048036038101906103679190611a40565b610ea2565b6040516103799190611d75565b60405180910390f35b34801561038e57600080fd5b506103a960048036038101906103a4919061199b565b610ec2565b005b3480156103b757600080fd5b506103d260048036038101906103cd9190611a40565b611109565b6040516103df9190611f26565b60405180910390f35b3480156103f457600080fd5b5061040f600480360381019061040a9190611a9a565b611139565b005b34801561041d57600080fd5b5061043860048036038101906104339190611a9a565b61122d565b005b610454600480360381019061044f9190611a40565b611364565b6040516104619190611d75565b60405180910390f35b34801561047657600080fd5b50610491600480360381019061048c91906118e6565b6115c0565b005b61049b611661565b73ffffffffffffffffffffffffffffffffffffffff1660008054906101000a900473ffffffffffffffffffffffffffffffffffffffff1673ffffffffffffffffffffffffffffffffffffffff1614610528576040517f08c379a000000000000000000000000000000000000000000000000000000000815260040161051f90611e66565b60405180910390fd5b600060149054906101000a900460ff1615600060146101000a81548160ff021916908315150217905550565b60046020528060005260406000206000915090505481565b60007f150b7a023d4804d13e8c85fb27262cb750cf6ba9f9dd3bb30d90f482ceeb4b1f905095945050505050565b6105a2611661565b73ffffffffffffffffffffffffffffffffffffffff1660008054906101000a900473ffffffffffffffffffffffffffffffffffffffff1673ffffffffffffffffffffffffffffffffffffffff161461062f576040517f08c379a000000000000000000000000000000000000000000000000000000000815260040161062690611e66565b60405180910390fd5b60004711610672576040517f08c379a000000000000000000000000000000000000000000000000000000000815260040161066990611ec6565b60405180910390fd5b61067a610e61565b73ffffffffffffffffffffffffffffffffffffffff166108fc479081150290604051600060405180830381858888f193505050501580156106bf573d6000803e3d6000fd5b50565b6106ca611661565b73ffffffffffffffffffffffffffffffffffffffff1660008054906101000a900473ffffffffffffffffffffffffffffffffffffffff1673ffffffffffffffffffffffffffffffffffffffff1614610757576040517f08c379a000000000000000000000000000000000000000000000000000000000815260040161074e90611e66565b60405180910390fd5b600160009054906101000a900473ffffffffffffffffffffffffffffffffffffffff1673ffffffffffffffffffffffffffffffffffffffff1663a34d42b8826040518263ffffffff1660e01b81526004016107b29190611cb5565b600060405180830381600087803b1580156107cc57600080fd5b505af11580156107e0573d6000803e3d6000fd5b5050505050565b600160009054906101000a900473ffffffffffffffffffffffffffffffffffffffff1681565b610815611661565b73ffffffffffffffffffffffffffffffffffffffff1660008054906101000a900473ffffffffffffffffffffffffffffffffffffffff1673ffffffffffffffffffffffffffffffffffffffff16146108a2576040517f08c379a000000000000000000000000000000000000000000000000000000000815260040161089990611e66565b60405180910390fd5b60008251116108e6576040517f08c379a00000000000000000000000000000000000000000000000000000000081526004016108dd90611ea6565b60405180910390fd5b805182511461092a576040517f08c379a000000000000000000000000000000000000000000000000000000000815260040161092190611e86565b60405180910390fd5b60005b81518110156109f257600082828151811061094b5761094a612108565b5b602002602001015111610993576040517f08c379a000000000000000000000000000000000000000000000000000000000815260040161098a90611ee6565b60405180910390fd5b8181815181106109a6576109a5612108565b5b6020026020010151600460008584815181106109c5576109c4612108565b5b602002602001015181526020019081526020016000208190555080806109ea90612090565b91505061092d565b505050565b600060149054906101000a900460ff1681565b610a12611661565b73ffffffffffffffffffffffffffffffffffffffff1660008054906101000a900473ffffffffffffffffffffffffffffffffffffffff1673ffffffffffffffffffffffffffffffffffffffff1614610a9f576040517f08c379a0000000000000000000000000000000000000000000000000000000008152600401610a9690611e66565b60405180910390fd5b600073ffffffffffffffffffffffffffffffffffffffff168173ffffffffffffffffffffffffffffffffffffffff161415610b0f576040517f08c379a0000000000000000000000000000000000000000000000000000000008152600401610b0690611e46565b60405180910390fd5b80600160006101000a81548173ffffffffffffffffffffffffffffffffffffffff021916908373ffffffffffffffffffffffffffffffffffffffff16021790555050565b610b5b611661565b73ffffffffffffffffffffffffffffffffffffffff1660008054906101000a900473ffffffffffffffffffffffffffffffffffffffff1673ffffffffffffffffffffffffffffffffffffffff1614610be8576040517f08c379a0000000000000000000000000000000000000000000000000000000008152600401610bdf90611e66565b60405180910390fd5b600073ffffffffffffffffffffffffffffffffffffffff1660008054906101000a900473ffffffffffffffffffffffffffffffffffffffff1673ffffffffffffffffffffffffffffffffffffffff167f8be0079c531659141344cd1fd0a4f28419497f9722a3daafe3b4186f6b6457e060405160405180910390a360008060006101000a81548173ffffffffffffffffffffffffffffffffffffffff021916908373ffffffffffffffffffffffffffffffffffffffff160217905550565b610cae611661565b73ffffffffffffffffffffffffffffffffffffffff1660008054906101000a900473ffffffffffffffffffffffffffffffffffffffff1673ffffffffffffffffffffffffffffffffffffffff1614610d3b576040517f08c379a0000000000000000000000000000000000000000000000000000000008152600401610d3290611e66565b60405180910390fd5b60008190508073ffffffffffffffffffffffffffffffffffffffff1663a9059cbb610d64610e61565b8373ffffffffffffffffffffffffffffffffffffffff166370a08231306040518263ffffffff1660e01b8152600401610d9d9190611cb5565b60206040518083038186803b158015610db557600080fd5b505afa158015610dc9573d6000803e3d6000fd5b505050506040513d601f19601f82011682018060405250810190610ded9190611a6d565b6040518363ffffffff1660e01b8152600401610e0a929190611d4c565b602060405180830381600087803b158015610e2457600080fd5b505af1158015610e38573d6000803e3d6000fd5b505050506040513d601f19601f82011682018060405250810190610e5c9190611a13565b505050565b60008060009054906101000a900473ffffffffffffffffffffffffffffffffffffffff16905090565b60036020528060005260406000206000915090505481565b60026020528060005260406000206000915054906101000a900460ff1681565b610eca611661565b73ffffffffffffffffffffffffffffffffffffffff1660008054906101000a900473ffffffffffffffffffffffffffffffffffffffff1673ffffffffffffffffffffffffffffffffffffffff1614610f57576040517f08c379a0000000000000000000000000000000000000000000000000000000008152600401610f4e90611e66565b60405180910390fd5b6000825111610f9b576040517f08c379a0000000000000000000000000000000000000000000000000000000008152600401610f9290611ea6565b60405180910390fd5b8051825114610fdf576040517f08c379a0000000000000000000000000000000000000000000000000000000008152600401610fd690611e86565b60405180910390fd5b60005b825181101561110457600083828151811061100057610fff612108565b5b602002602001015111611048576040517f08c379a000000000000000000000000000000000000000000000000000000000815260040161103f90611ee6565b60405180910390fd5b600082828151811061105d5761105c612108565b5b6020026020010151116110a5576040517f08c379a000000000000000000000000000000000000000000000000000000000815260040161109c90611f06565b60405180910390fd5b8181815181106110b8576110b7612108565b5b6020026020010151600360008584815181106110d7576110d6612108565b5b602002602001015181526020019081526020016000208190555080806110fc90612090565b915050610fe2565b505050565b60006003600060046000858152602001908152602001600020548152602001908152602001600020549050919050565b611141611661565b73ffffffffffffffffffffffffffffffffffffffff1660008054906101000a900473ffffffffffffffffffffffffffffffffffffffff1673ffffffffffffffffffffffffffffffffffffffff16146111ce576040517f08c379a00000000000000000000000000000000000000000000000000000000081526004016111c590611e66565b60405180910390fd5b60008111611211576040517f08c379a000000000000000000000000000000000000000000000000000000000815260040161120890611ee6565b60405180910390fd5b8060046000848152602001908152602001600020819055505050565b611235611661565b73ffffffffffffffffffffffffffffffffffffffff1660008054906101000a900473ffffffffffffffffffffffffffffffffffffffff1673ffffffffffffffffffffffffffffffffffffffff16146112c2576040517f08c379a00000000000000000000000000000000000000000000000000000000081526004016112b990611e66565b60405180910390fd5b60008211611305576040517f08c379a00000000000000000000000000000000000000000000000000000000081526004016112fc90611ee6565b60405180910390fd5b60008111611348576040517f08c379a000000000000000000000000000000000000000000000000000000000815260040161133f90611f06565b60405180910390fd5b8060036000848152602001908152602001600020819055505050565b60008060149054906101000a900460ff166113b4576040517f08c379a00000000000000000000000000000000000000000000000000000000081526004016113ab90611dc6565b60405180910390fd5b6002600083815260200190815260200160002060009054906101000a900460ff1615611415576040517f08c379a000000000000000000000000000000000000000000000000000000000815260040161140c90611de6565b60405180910390fd5b600061142083611109565b905060008111611465576040517f08c379a000000000000000000000000000000000000000000000000000000000815260040161145c90611f06565b60405180910390fd5b8034146114a7576040517f08c379a000000000000000000000000000000000000000000000000000000000815260040161149e90611e06565b60405180910390fd5b600160009054906101000a900473ffffffffffffffffffffffffffffffffffffffff1673ffffffffffffffffffffffffffffffffffffffff166342842e0e306114ee611661565b866040518463ffffffff1660e01b815260040161150d93929190611d15565b600060405180830381600087803b15801561152757600080fd5b505af115801561153b573d6000803e3d6000fd5b5050505060016002600085815260200190815260200160002060006101000a81548160ff0219169083151502179055507f2bdd59583c8e5cc64165e86af2482dbe93e85c98b355b788aa592465b3f6920e611594611661565b848361159e611669565b6040516115ae9493929190611cd0565b60405180910390a16001915050919050565b6115c8611661565b73ffffffffffffffffffffffffffffffffffffffff1660008054906101000a900473ffffffffffffffffffffffffffffffffffffffff1673ffffffffffffffffffffffffffffffffffffffff1614611655576040517f08c379a000000000000000000000000000000000000000000000000000000000815260040161164c90611e66565b60405180910390fd5b61165e81611671565b50565b600033905090565b600042905090565b600073ffffffffffffffffffffffffffffffffffffffff168173ffffffffffffffffffffffffffffffffffffffff1614156116e1576040517f08c379a00000000000000000000000000000000000000000000000000000000081526004016116d890611e26565b60405180910390fd5b8073ffffffffffffffffffffffffffffffffffffffff1660008054906101000a900473ffffffffffffffffffffffffffffffffffffffff1673ffffffffffffffffffffffffffffffffffffffff167f8be0079c531659141344cd1fd0a4f28419497f9722a3daafe3b4186f6b6457e060405160405180910390a3806000806101000a81548173ffffffffffffffffffffffffffffffffffffffff021916908373ffffffffffffffffffffffffffffffffffffffff16021790555050565b60006117b16117ac84611f66565b611f41565b905080838252602082019050828560208602820111156117d4576117d3612170565b5b60005b8581101561180457816117ea88826118bc565b8452602084019350602083019250506001810190506117d7565b5050509392505050565b60008135905061181d81612379565b92915050565b600082601f8301126118385761183761216b565b5b813561184884826020860161179e565b91505092915050565b60008151905061186081612390565b92915050565b60008083601f84011261187c5761187b61216b565b5b8235905067ffffffffffffffff81111561189957611898612166565b5b6020830191508360018202830111156118b5576118b4612170565b5b9250929050565b6000813590506118cb816123a7565b92915050565b6000815190506118e0816123a7565b92915050565b6000602082840312156118fc576118fb61217a565b5b600061190a8482850161180e565b91505092915050565b60008060008060006080868803121561192f5761192e61217a565b5b600061193d8882890161180e565b955050602061194e8882890161180e565b945050604061195f888289016118bc565b935050606086013567ffffffffffffffff8111156119805761197f612175565b5b61198c88828901611866565b92509250509295509295909350565b600080604083850312156119b2576119b161217a565b5b600083013567ffffffffffffffff8111156119d0576119cf612175565b5b6119dc85828601611823565b925050602083013567ffffffffffffffff8111156119fd576119fc612175565b5b611a0985828601611823565b9150509250929050565b600060208284031215611a2957611a2861217a565b5b6000611a3784828501611851565b91505092915050565b600060208284031215611a5657611a5561217a565b5b6000611a64848285016118bc565b91505092915050565b600060208284031215611a8357611a8261217a565b5b6000611a91848285016118d1565b91505092915050565b60008060408385031215611ab157611ab061217a565b5b6000611abf858286016118bc565b9250506020611ad0858286016118bc565b9150509250929050565b611ae381612017565b82525050565b611af281611fa3565b82525050565b611b0181611fb5565b82525050565b611b1081611fc1565b82525050565b611b1f81612029565b82525050565b6000611b32600683611f92565b9150611b3d82612190565b602082019050919050565b6000611b55600483611f92565b9150611b60826121b9565b602082019050919050565b6000611b78601783611f92565b9150611b83826121e2565b602082019050919050565b6000611b9b602683611f92565b9150611ba68261220b565b604082019050919050565b6000611bbe600983611f92565b9150611bc98261225a565b602082019050919050565b6000611be1602083611f92565b9150611bec82612283565b602082019050919050565b6000611c04600d83611f92565b9150611c0f826122ac565b602082019050919050565b6000611c27600b83611f92565b9150611c32826122d5565b602082019050919050565b6000611c4a600c83611f92565b9150611c55826122fe565b602082019050919050565b6000611c6d600983611f92565b9150611c7882612327565b602082019050919050565b6000611c90600a83611f92565b9150611c9b82612350565b602082019050919050565b611caf8161200d565b82525050565b6000602082019050611cca6000830184611ae9565b92915050565b6000608082019050611ce56000830187611ada565b611cf26020830186611ca6565b611cff6040830185611ca6565b611d0c6060830184611ca6565b95945050505050565b6000606082019050611d2a6000830186611ae9565b611d376020830185611ada565b611d446040830184611ca6565b949350505050565b6000604082019050611d616000830185611ae9565b611d6e6020830184611ca6565b9392505050565b6000602082019050611d8a6000830184611af8565b92915050565b6000602082019050611da56000830184611b07565b92915050565b6000602082019050611dc06000830184611b16565b92915050565b60006020820190508181036000830152611ddf81611b25565b9050919050565b60006020820190508181036000830152611dff81611b48565b9050919050565b60006020820190508181036000830152611e1f81611b6b565b9050919050565b60006020820190508181036000830152611e3f81611b8e565b9050919050565b60006020820190508181036000830152611e5f81611bb1565b9050919050565b60006020820190508181036000830152611e7f81611bd4565b9050919050565b60006020820190508181036000830152611e9f81611bf7565b9050919050565b60006020820190508181036000830152611ebf81611c1a565b9050919050565b60006020820190508181036000830152611edf81611c3d565b9050919050565b60006020820190508181036000830152611eff81611c60565b9050919050565b60006020820190508181036000830152611f1f81611c83565b9050919050565b6000602082019050611f3b6000830184611ca6565b92915050565b6000611f4b611f5c565b9050611f57828261205f565b919050565b6000604051905090565b600067ffffffffffffffff821115611f8157611f80612137565b5b602082029050602081019050919050565b600082825260208201905092915050565b6000611fae82611fed565b9050919050565b60008115159050919050565b60007fffffffff0000000000000000000000000000000000000000000000000000000082169050919050565b600073ffffffffffffffffffffffffffffffffffffffff82169050919050565b6000819050919050565b60006120228261203b565b9050919050565b60006120348261203b565b9050919050565b60006120468261204d565b9050919050565b600061205882611fed565b9050919050565b6120688261217f565b810181811067ffffffffffffffff8211171561208757612086612137565b5b80604052505050565b600061209b8261200d565b91507fffffffffffffffffffffffffffffffffffffffffffffffffffffffffffffffff8214156120ce576120cd6120d9565b5b600182019050919050565b7f4e487b7100000000000000000000000000000000000000000000000000000000600052601160045260246000fd5b7f4e487b7100000000000000000000000000000000000000000000000000000000600052603260045260246000fd5b7f4e487b7100000000000000000000000000000000000000000000000000000000600052604160045260246000fd5b600080fd5b600080fd5b600080fd5b600080fd5b600080fd5b6000601f19601f8301169050919050565b7f5061757365640000000000000000000000000000000000000000000000000000600082015250565b7f536f6c6400000000000000000000000000000000000000000000000000000000600082015250565b7f496e76616c696420424e4220746f207075726368617365000000000000000000600082015250565b7f4f776e61626c653a206e6577206f776e657220697320746865207a65726f206160008201527f6464726573730000000000000000000000000000000000000000000000000000602082015250565b7f4164647265737320300000000000000000000000000000000000000000000000600082015250565b7f4f776e61626c653a2063616c6c6572206973206e6f7420746865206f776e6572600082015250565b7f496e76616c696420696e70757400000000000000000000000000000000000000600082015250565b7f456d707479206172726179000000000000000000000000000000000000000000600082015250565b7f5a65726f2062616c616e63650000000000000000000000000000000000000000600082015250565b7f5374617220697320300000000000000000000000000000000000000000000000600082015250565b7f5072696365206973203000000000000000000000000000000000000000000000600082015250565b61238281611fa3565b811461238d57600080fd5b50565b61239981611fb5565b81146123a457600080fd5b50565b6123b08161200d565b81146123bb57600080fd5b5056fea2646970667358221220713898bd4cf29449ae6fb9260b45be0c7d2549b275956d984ddb8495050d01b864736f6c63430008070033",
  "immutableReferences": {},
  "source": "// SPDX-License-Identifier: MIT\r\n\r\npragma solidity ^0.8.0;\r\n\r\nimport \"./interfaces/IERC20.sol\";\r\nimport \"./interfaces/IERC721.sol\";\r\nimport \"./interfaces/IERC721Receiver.sol\";\r\nimport \"./utils/Runnable.sol\";\r\n\r\ninterface IElemonNFT{\r\n    function mint(address to, uint256 tokenId) external;\r\n    function setContractOwner(address newOwner) external;\r\n    function safeTransferFrom(address from, address to, uint256 tokenId) external;\r\n}\r\n\r\ncontract ElemonShop is Runnable, IERC721Receiver{\r\n    IElemonNFT public _elemonNft;\r\n    \r\n    //Mapping tokenId and \r\n    mapping(uint256 => bool) public _isSold;\r\n    \r\n    //Mapping star => price\r\n    mapping(uint256 => uint256) public _starPrices;\r\n    \r\n    //Mapping tokenId => star\r\n    mapping(uint256 => uint256) public _tokenStars;\r\n    \r\n    constructor(address nftAddress){\r\n        _elemonNft = IElemonNFT(nftAddress);\r\n    }\r\n    \r\n    function setElemonNft(address newAddress) public onlyOwner{\r\n        require(newAddress != address(0), \"Address 0\");\r\n        _elemonNft = IElemonNFT(newAddress);\r\n    }\r\n    \r\n    function setStarPrice(uint256 star, uint256 price) public onlyOwner{\r\n        require(star > 0, \"Star is 0\");\r\n        require(price > 0, \"Price is 0\");\r\n        _starPrices[star] = price;\r\n    }\r\n    \r\n    function setStarPriceMultiple(uint256[] memory stars, uint256[] memory prices) public onlyOwner{\r\n        require(stars.length > 0 , \"Empty array\");\r\n        require(stars.length == prices.length, \"Invalid input\");\r\n        \r\n        for(uint256 index = 0; index < stars.length; index++){\r\n            require(stars[index] > 0, \"Star is 0\");\r\n            require(prices[index] > 0, \"Price is 0\");\r\n            _starPrices[stars[index]] = prices[index];\r\n        }\r\n    }\r\n    \r\n    function setTokenStar(uint256 tokenId, uint256 star) public onlyOwner{\r\n        require(star > 0, \"Star is 0\");\r\n        _tokenStars[tokenId] = star;\r\n    }\r\n    \r\n    function setTokenStarMultiple(uint256[] memory tokenIds, uint256[] memory stars) public onlyOwner{\r\n        require(tokenIds.length > 0 , \"Empty array\");\r\n        require(tokenIds.length == stars.length, \"Invalid input\");\r\n        \r\n        for(uint256 index = 0; index < stars.length; index++){\r\n            require(stars[index] > 0, \"Star is 0\");\r\n            _tokenStars[tokenIds[index]] = stars[index];\r\n        }\r\n    }\r\n    \r\n    function getTokenPrice(uint256 tokenId) public view returns(uint256){\r\n        return _starPrices[_tokenStars[tokenId]];\r\n    }\r\n    \r\n    function purchase(uint256 tokenId) public payable whenRunning returns(bool){\r\n        require(!_isSold[tokenId], \"Sold\");\r\n        uint256 price = getTokenPrice(tokenId);\r\n        require(price > 0, \"Price is 0\");\r\n        require(msg.value == price, \"Invalid BNB to purchase\");\r\n        \r\n        _elemonNft.safeTransferFrom(address(this), _msgSender(), tokenId);\r\n        _isSold[tokenId] = true;\r\n        \r\n        emit Purchased(_msgSender(), tokenId, price, _now());\r\n        return true;\r\n    }\r\n    \r\n    function withdrawToken(address tokenAddress) public onlyOwner{\r\n        IERC20 token = IERC20(tokenAddress);\r\n        token.transfer(owner(), token.balanceOf(address(this)));\r\n    }\r\n    \r\n    function setNftContractOwner(address newOwner) public onlyOwner{\r\n        _elemonNft.setContractOwner(newOwner);\r\n    }\r\n    \r\n    function withdrawBnb() public onlyOwner{\r\n        require(address(this).balance > 0, \"Zero balance\");\r\n        payable(owner()).transfer(address(this).balance);\r\n    }\r\n    \r\n    function onERC721Received(address operator, address from, uint256 tokenId, bytes calldata data) external view override returns (bytes4){\r\n        return bytes4(\r\n                keccak256(\"onERC721Received(address,address,uint256,bytes)\")\r\n            );\r\n    }\r\n    \r\n    event Purchased(address account, uint256 tokenId, uint256 price, uint256 time);\r\n}",
  "sourcePath": "D:/B/Elemon/contracts/contracts/ElemonShop.sol",
  "compiler": {
    "name": "solc",
    "version": "0.8.7+commit.e28d00a7.Emscripten.clang"
  },
  "schemaVersion": "3.3.1",
  "updatedAt": "2021-09-01T04:19:51.139Z",
  "devdoc": {
    "kind": "dev",
    "methods": {
      "owner()": {
        "details": "Returns the address of the current owner."
      },
      "renounceOwnership()": {
        "details": "Leaves the contract without owner. It will not be possible to call `onlyOwner` functions anymore. Can only be called by the current owner. NOTE: Renouncing ownership will leave the contract without an owner, thereby removing any functionality that is only available to the owner."
      },
      "transferOwnership(address)": {
        "details": "Transfers ownership of the contract to a new account (`newOwner`). Can only be called by the current owner."
      }
    },
    "version": 1
  },
  "userdoc": {
    "kind": "user",
    "methods": {},
    "version": 1
  }
}