{
  "contractName": "ElemonMarketplace",
  "abi": [
    {
      "inputs": [
        {
          "internalType": "address",
          "name": "tokenAddress",
          "type": "address"
        },
        {
          "internalType": "address",
          "name": "nftAddress",
          "type": "address"
        }
      ],
      "stateMutability": "nonpayable",
      "type": "constructor"
    },
    {
      "anonymous": false,
      "inputs": [
        {
          "indexed": false,
          "internalType": "address",
          "name": "seller",
          "type": "address"
        },
        {
          "indexed": false,
          "internalType": "uint256",
          "name": "tokenId",
          "type": "uint256"
        },
        {
          "indexed": false,
          "internalType": "uint256",
          "name": "price",
          "type": "uint256"
        },
        {
          "indexed": false,
          "internalType": "uint256",
          "name": "time",
          "type": "uint256"
        }
      ],
      "name": "NewSellOrderCreated",
      "type": "event"
    },
    {
      "anonymous": false,
      "inputs": [
        {
          "indexed": true,
          "internalType": "address",
          "name": "previousOwner",
          "type": "address"
        },
        {
          "indexed": true,
          "internalType": "address",
          "name": "newOwner",
          "type": "address"
        }
      ],
      "name": "OwnershipTransferred",
      "type": "event"
    },
    {
      "anonymous": false,
      "inputs": [
        {
          "indexed": false,
          "internalType": "address",
          "name": "buyer",
          "type": "address"
        },
        {
          "indexed": false,
          "internalType": "uint256",
          "name": "tokenId",
          "type": "uint256"
        },
        {
          "indexed": false,
          "internalType": "uint256",
          "name": "price",
          "type": "uint256"
        },
        {
          "indexed": false,
          "internalType": "uint256",
          "name": "time",
          "type": "uint256"
        }
      ],
      "name": "Purchased",
      "type": "event"
    },
    {
      "anonymous": false,
      "inputs": [
        {
          "indexed": false,
          "internalType": "uint256",
          "name": "tokenId",
          "type": "uint256"
        },
        {
          "indexed": false,
          "internalType": "uint256",
          "name": "time",
          "type": "uint256"
        }
      ],
      "name": "SellingOrderCanceled",
      "type": "event"
    },
    {
      "inputs": [],
      "name": "MULTIPLIER",
      "outputs": [
        {
          "internalType": "uint256",
          "name": "",
          "type": "uint256"
        }
      ],
      "stateMutability": "view",
      "type": "function"
    },
    {
      "inputs": [],
      "name": "_elemonNftAddress",
      "outputs": [
        {
          "internalType": "address",
          "name": "",
          "type": "address"
        }
      ],
      "stateMutability": "view",
      "type": "function"
    },
    {
      "inputs": [],
      "name": "_elemonTokenAddress",
      "outputs": [
        {
          "internalType": "address",
          "name": "",
          "type": "address"
        }
      ],
      "stateMutability": "view",
      "type": "function"
    },
    {
      "inputs": [],
      "name": "owner",
      "outputs": [
        {
          "internalType": "address",
          "name": "",
          "type": "address"
        }
      ],
      "stateMutability": "view",
      "type": "function"
    },
    {
      "inputs": [],
      "name": "renounceOwnership",
      "outputs": [],
      "stateMutability": "nonpayable",
      "type": "function"
    },
    {
      "inputs": [
        {
          "internalType": "address",
          "name": "newOwner",
          "type": "address"
        }
      ],
      "name": "transferOwnership",
      "outputs": [],
      "stateMutability": "nonpayable",
      "type": "function"
    },
    {
      "inputs": [
        {
          "internalType": "uint256",
          "name": "tokenId",
          "type": "uint256"
        },
        {
          "internalType": "uint256",
          "name": "price",
          "type": "uint256"
        }
      ],
      "name": "createSellOrder",
      "outputs": [
        {
          "internalType": "bool",
          "name": "",
          "type": "bool"
        }
      ],
      "stateMutability": "nonpayable",
      "type": "function"
    },
    {
      "inputs": [
        {
          "internalType": "uint256",
          "name": "tokenId",
          "type": "uint256"
        }
      ],
      "name": "cancelSellOrder",
      "outputs": [
        {
          "internalType": "bool",
          "name": "",
          "type": "bool"
        }
      ],
      "stateMutability": "nonpayable",
      "type": "function"
    },
    {
      "inputs": [],
      "name": "getTokens",
      "outputs": [
        {
          "internalType": "uint256[]",
          "name": "",
          "type": "uint256[]"
        }
      ],
      "stateMutability": "view",
      "type": "function"
    },
    {
      "inputs": [
        {
          "internalType": "uint256",
          "name": "tokenId",
          "type": "uint256"
        }
      ],
      "name": "getTokenInfo",
      "outputs": [
        {
          "internalType": "address",
          "name": "",
          "type": "address"
        },
        {
          "internalType": "uint256",
          "name": "",
          "type": "uint256"
        }
      ],
      "stateMutability": "view",
      "type": "function"
    },
    {
      "inputs": [],
      "name": "getFeePercent",
      "outputs": [
        {
          "internalType": "uint256",
          "name": "",
          "type": "uint256"
        }
      ],
      "stateMutability": "view",
      "type": "function"
    },
    {
      "inputs": [
        {
          "internalType": "uint256",
          "name": "tokenId",
          "type": "uint256"
        }
      ],
      "name": "getMarketHistories",
      "outputs": [
        {
          "components": [
            {
              "internalType": "address",
              "name": "buyer",
              "type": "address"
            },
            {
              "internalType": "address",
              "name": "seller",
              "type": "address"
            },
            {
              "internalType": "uint256",
              "name": "price",
              "type": "uint256"
            },
            {
              "internalType": "uint256",
              "name": "time",
              "type": "uint256"
            }
          ],
          "internalType": "struct ElemonMarketplace.MarketHistory[]",
          "name": "",
          "type": "tuple[]"
        }
      ],
      "stateMutability": "view",
      "type": "function"
    },
    {
      "inputs": [
        {
          "internalType": "uint256",
          "name": "tokenId",
          "type": "uint256"
        }
      ],
      "name": "getTokenPrice",
      "outputs": [
        {
          "internalType": "uint256",
          "name": "",
          "type": "uint256"
        }
      ],
      "stateMutability": "view",
      "type": "function"
    },
    {
      "inputs": [
        {
          "internalType": "uint256",
          "name": "tokenId",
          "type": "uint256"
        }
      ],
      "name": "getTokenOwner",
      "outputs": [
        {
          "internalType": "address",
          "name": "",
          "type": "address"
        }
      ],
      "stateMutability": "view",
      "type": "function"
    },
    {
      "inputs": [
        {
          "internalType": "uint256",
          "name": "tokenId",
          "type": "uint256"
        }
      ],
      "name": "purchase",
      "outputs": [
        {
          "internalType": "uint256",
          "name": "",
          "type": "uint256"
        }
      ],
      "stateMutability": "nonpayable",
      "type": "function"
    },
    {
      "inputs": [
        {
          "internalType": "address",
          "name": "newAddress",
          "type": "address"
        }
      ],
      "name": "setElemonContractAddress",
      "outputs": [],
      "stateMutability": "nonpayable",
      "type": "function"
    },
    {
      "inputs": [
        {
          "internalType": "address",
          "name": "newAddress",
          "type": "address"
        }
      ],
      "name": "setElemonTokenAddress",
      "outputs": [],
      "stateMutability": "nonpayable",
      "type": "function"
    },
    {
      "inputs": [
        {
          "internalType": "uint256",
          "name": "feePercent",
          "type": "uint256"
        }
      ],
      "name": "setFeePercent",
      "outputs": [],
      "stateMutability": "nonpayable",
      "type": "function"
    },
    {
      "inputs": [
        {
          "internalType": "address",
          "name": "operator",
          "type": "address"
        },
        {
          "internalType": "address",
          "name": "from",
          "type": "address"
        },
        {
          "internalType": "uint256",
          "name": "tokenId",
          "type": "uint256"
        },
        {
          "internalType": "bytes",
          "name": "data",
          "type": "bytes"
        }
      ],
      "name": "onERC721Received",
      "outputs": [
        {
          "internalType": "bytes4",
          "name": "",
          "type": "bytes4"
        }
      ],
      "stateMutability": "view",
      "type": "function"
    }
  ],
  "bytecode": "0x60806040523480156200001157600080fd5b5060405162002861380380620028618339818101604052810190620000379190620001a2565b620000476200018360201b60201c565b6000806101000a81548173ffffffffffffffffffffffffffffffffffffffff021916908373ffffffffffffffffffffffffffffffffffffffff160217905550620000966200018360201b60201c565b73ffffffffffffffffffffffffffffffffffffffff16600073ffffffffffffffffffffffffffffffffffffffff167f8be0079c531659141344cd1fd0a4f28419497f9722a3daafe3b4186f6b6457e060405160405180910390a381600160006101000a81548173ffffffffffffffffffffffffffffffffffffffff021916908373ffffffffffffffffffffffffffffffffffffffff16021790555080600260006101000a81548173ffffffffffffffffffffffffffffffffffffffff021916908373ffffffffffffffffffffffffffffffffffffffff1602179055506107d060038190555050506200023c565b600033905090565b6000815190506200019c8162000222565b92915050565b60008060408385031215620001bc57620001bb6200021d565b5b6000620001cc858286016200018b565b9250506020620001df858286016200018b565b9150509250929050565b6000620001f682620001fd565b9050919050565b600073ffffffffffffffffffffffffffffffffffffffff82169050919050565b600080fd5b6200022d81620001e9565b81146200023957600080fd5b50565b612615806200024c6000396000f3fe608060405234801561001057600080fd5b50600436106101215760003560e01c80638c7a63ae116100ad578063c185037e11610071578063c185037e14610321578063c457fb371461033d578063e93958251461036d578063efef39a114610389578063f2fde38b146103b957610121565b80638c7a63ae146102665780638da5cb5b14610297578063a5cd761f146102b5578063aa6ca808146102e5578063be74264d1461030357610121565b8063342a6043116100f4578063342a6043146101d457806346e99f2d14610204578063715018a6146102225780637ce3489b1461022c5780637f98b45b1461024857610121565b8063059f8b1614610126578063150b7a02146101445780631a46e42a146101745780631df68102146101a4575b600080fd5b61012e6103d5565b60405161013b91906120bb565b60405180910390f35b61015e60048036038101906101599190611aa9565b6103db565b60405161016b9190611fc0565b60405180910390f35b61018e60048036038101906101899190611b5e565b610409565b60405161019b9190611fa5565b60405180910390f35b6101be60048036038101906101b99190611b8b565b610625565b6040516101cb9190611fa5565b60405180910390f35b6101ee60048036038101906101e99190611b5e565b610952565b6040516101fb9190611f61565b60405180910390f35b61020c610a84565b6040516102199190611e6a565b60405180910390f35b61022a610aaa565b005b61024660048036038101906102419190611b5e565b610bfd565b005b610250610c9c565b60405161025d9190611e6a565b60405180910390f35b610280600480360381019061027b9190611b5e565b610cc2565b60405161028e929190611f38565b60405180910390f35b61029f610d16565b6040516102ac9190611e6a565b60405180910390f35b6102cf60048036038101906102ca9190611b5e565b610d3f565b6040516102dc9190611e6a565b60405180910390f35b6102ed610d7c565b6040516102fa9190611f83565b60405180910390f35b61030b610dd4565b60405161031891906120bb565b60405180910390f35b61033b60048036038101906103369190611a4f565b610dde565b005b61035760048036038101906103529190611b5e565b610f27565b60405161036491906120bb565b60405180910390f35b61038760048036038101906103829190611a4f565b610f44565b005b6103a3600480360381019061039e9190611b5e565b61108d565b6040516103b091906120bb565b60405180910390f35b6103d360048036038101906103ce9190611a4f565b611673565b005b6103e881565b60007f150b7a023d4804d13e8c85fb27262cb750cf6ba9f9dd3bb30d90f482ceeb4b1f905095945050505050565b6000610413611714565b73ffffffffffffffffffffffffffffffffffffffff166006600084815260200190815260200160002060009054906101000a900473ffffffffffffffffffffffffffffffffffffffff1673ffffffffffffffffffffffffffffffffffffffff16146104b3576040517f08c379a00000000000000000000000000000000000000000000000000000000081526004016104aa9061201b565b60405180910390fd5b6000600260009054906101000a900473ffffffffffffffffffffffffffffffffffffffff1690508073ffffffffffffffffffffffffffffffffffffffff166342842e0e306104ff611714565b866040518463ffffffff1660e01b815260040161051e93929190611f01565b600060405180830381600087803b15801561053857600080fd5b505af115801561054c573d6000803e3d6000fd5b5050505060006006600085815260200190815260200160002060006101000a81548173ffffffffffffffffffffffffffffffffffffffff021916908373ffffffffffffffffffffffffffffffffffffffff160217905550600060056000858152602001908152602001600020819055506105c58361171c565b600490805190602001906105da92919061193b565b507f113394c522d1c2382eaf87ee9a75fbb6253408f4b1494313882c343fce693bc383610605611806565b6040516106139291906120d6565b60405180910390a16001915050919050565b60008073ffffffffffffffffffffffffffffffffffffffff166006600085815260200190815260200160002060009054906101000a900473ffffffffffffffffffffffffffffffffffffffff1673ffffffffffffffffffffffffffffffffffffffff16146106c8576040517f08c379a00000000000000000000000000000000000000000000000000000000081526004016106bf9061209b565b60405180910390fd5b6000600260009054906101000a900473ffffffffffffffffffffffffffffffffffffffff1690506106f7611714565b73ffffffffffffffffffffffffffffffffffffffff168173ffffffffffffffffffffffffffffffffffffffff16636352211e866040518263ffffffff1660e01b815260040161074691906120bb565b60206040518083038186803b15801561075e57600080fd5b505afa158015610772573d6000803e3d6000fd5b505050506040513d601f19601f820116820180604052508101906107969190611a7c565b73ffffffffffffffffffffffffffffffffffffffff16146107ec576040517f08c379a00000000000000000000000000000000000000000000000000000000081526004016107e390611fdb565b60405180910390fd5b8073ffffffffffffffffffffffffffffffffffffffff166342842e0e610810611714565b30876040518463ffffffff1660e01b815260040161083093929190611e85565b600060405180830381600087803b15801561084a57600080fd5b505af115801561085e573d6000803e3d6000fd5b5050505061086a611714565b6006600086815260200190815260200160002060006101000a81548173ffffffffffffffffffffffffffffffffffffffff021916908373ffffffffffffffffffffffffffffffffffffffff16021790555082600560008681526020019081526020016000208190555060048490806001815401808255809150506001900390600052602060002001600090919091909150557f3bff28550c02bb228f16be81d44f95a4963a8d9b283da9ba2c1040a23a6d64f2610925611714565b858561092f611806565b60405161093f9493929190611ebc565b60405180910390a1600191505092915050565b606060076000838152602001908152602001600020805480602002602001604051908101604052809291908181526020016000905b82821015610a7957838290600052602060002090600402016040518060800160405290816000820160009054906101000a900473ffffffffffffffffffffffffffffffffffffffff1673ffffffffffffffffffffffffffffffffffffffff1673ffffffffffffffffffffffffffffffffffffffff1681526020016001820160009054906101000a900473ffffffffffffffffffffffffffffffffffffffff1673ffffffffffffffffffffffffffffffffffffffff1673ffffffffffffffffffffffffffffffffffffffff1681526020016002820154815260200160038201548152505081526020019060010190610987565b505050509050919050565b600260009054906101000a900473ffffffffffffffffffffffffffffffffffffffff1681565b610ab2611714565b73ffffffffffffffffffffffffffffffffffffffff1660008054906101000a900473ffffffffffffffffffffffffffffffffffffffff1673ffffffffffffffffffffffffffffffffffffffff1614610b3f576040517f08c379a0000000000000000000000000000000000000000000000000000000008152600401610b369061205b565b60405180910390fd5b600073ffffffffffffffffffffffffffffffffffffffff1660008054906101000a900473ffffffffffffffffffffffffffffffffffffffff1673ffffffffffffffffffffffffffffffffffffffff167f8be0079c531659141344cd1fd0a4f28419497f9722a3daafe3b4186f6b6457e060405160405180910390a360008060006101000a81548173ffffffffffffffffffffffffffffffffffffffff021916908373ffffffffffffffffffffffffffffffffffffffff160217905550565b610c05611714565b73ffffffffffffffffffffffffffffffffffffffff1660008054906101000a900473ffffffffffffffffffffffffffffffffffffffff1673ffffffffffffffffffffffffffffffffffffffff1614610c92576040517f08c379a0000000000000000000000000000000000000000000000000000000008152600401610c899061205b565b60405180910390fd5b8060038190555050565b600160009054906101000a900473ffffffffffffffffffffffffffffffffffffffff1681565b6000806006600084815260200190815260200160002060009054906101000a900473ffffffffffffffffffffffffffffffffffffffff16600560008581526020019081526020016000205491509150915091565b60008060009054906101000a900473ffffffffffffffffffffffffffffffffffffffff16905090565b60006006600083815260200190815260200160002060009054906101000a900473ffffffffffffffffffffffffffffffffffffffff169050919050565b60606004805480602002602001604051908101604052809291908181526020018280548015610dca57602002820191906000526020600020905b815481526020019060010190808311610db6575b5050505050905090565b6000600354905090565b610de6611714565b73ffffffffffffffffffffffffffffffffffffffff1660008054906101000a900473ffffffffffffffffffffffffffffffffffffffff1673ffffffffffffffffffffffffffffffffffffffff1614610e73576040517f08c379a0000000000000000000000000000000000000000000000000000000008152600401610e6a9061205b565b60405180910390fd5b600073ffffffffffffffffffffffffffffffffffffffff168173ffffffffffffffffffffffffffffffffffffffff161415610ee3576040517f08c379a0000000000000000000000000000000000000000000000000000000008152600401610eda9061203b565b60405180910390fd5b80600260006101000a81548173ffffffffffffffffffffffffffffffffffffffff021916908373ffffffffffffffffffffffffffffffffffffffff16021790555050565b600060056000838152602001908152602001600020549050919050565b610f4c611714565b73ffffffffffffffffffffffffffffffffffffffff1660008054906101000a900473ffffffffffffffffffffffffffffffffffffffff1673ffffffffffffffffffffffffffffffffffffffff1614610fd9576040517f08c379a0000000000000000000000000000000000000000000000000000000008152600401610fd09061205b565b60405180910390fd5b600073ffffffffffffffffffffffffffffffffffffffff168173ffffffffffffffffffffffffffffffffffffffff161415611049576040517f08c379a00000000000000000000000000000000000000000000000000000000081526004016110409061203b565b60405180910390fd5b80600160006101000a81548173ffffffffffffffffffffffffffffffffffffffff021916908373ffffffffffffffffffffffffffffffffffffffff16021790555050565b6000806006600084815260200190815260200160002060009054906101000a900473ffffffffffffffffffffffffffffffffffffffff169050600073ffffffffffffffffffffffffffffffffffffffff168173ffffffffffffffffffffffffffffffffffffffff161415611136576040517f08c379a000000000000000000000000000000000000000000000000000000000815260040161112d9061207b565b60405180910390fd5b6000600560008581526020019081526020016000205490506000811115611394576000600160009054906101000a900473ffffffffffffffffffffffffffffffffffffffff1690508073ffffffffffffffffffffffffffffffffffffffff166323b872dd6111a2611714565b30856040518463ffffffff1660e01b81526004016111c293929190611e85565b602060405180830381600087803b1580156111dc57600080fd5b505af11580156111f0573d6000803e3d6000fd5b505050506040513d601f19601f820116820180604052508101906112149190611b31565b61121d57600080fd5b60008060035411156112f0576103e860646003548561123c91906121b3565b6112469190612182565b6112509190612182565b90508173ffffffffffffffffffffffffffffffffffffffff1663a9059cbb611276610d16565b836040518363ffffffff1660e01b8152600401611294929190611f38565b602060405180830381600087803b1580156112ae57600080fd5b505af11580156112c2573d6000803e3d6000fd5b505050506040513d601f19601f820116820180604052508101906112e69190611b31565b6112ef57600080fd5b5b8173ffffffffffffffffffffffffffffffffffffffff1663a9059cbb858386611319919061220d565b6040518363ffffffff1660e01b8152600401611336929190611f38565b602060405180830381600087803b15801561135057600080fd5b505af1158015611364573d6000803e3d6000fd5b505050506040513d601f19601f820116820180604052508101906113889190611b31565b61139157600080fd5b50505b600260009054906101000a900473ffffffffffffffffffffffffffffffffffffffff1673ffffffffffffffffffffffffffffffffffffffff166323b872dd306113db611714565b876040518463ffffffff1660e01b81526004016113fa93929190611f01565b600060405180830381600087803b15801561141457600080fd5b505af1158015611428573d6000803e3d6000fd5b50505050600760008581526020019081526020016000206040518060800160405280611452611714565b73ffffffffffffffffffffffffffffffffffffffff1681526020016006600088815260200190815260200160002060009054906101000a900473ffffffffffffffffffffffffffffffffffffffff1673ffffffffffffffffffffffffffffffffffffffff16815260200183815260200142815250908060018154018082558091505060019003906000526020600020906004020160009091909190915060008201518160000160006101000a81548173ffffffffffffffffffffffffffffffffffffffff021916908373ffffffffffffffffffffffffffffffffffffffff16021790555060208201518160010160006101000a81548173ffffffffffffffffffffffffffffffffffffffff021916908373ffffffffffffffffffffffffffffffffffffffff1602179055506040820151816002015560608201518160030155505060006006600086815260200190815260200160002060006101000a81548173ffffffffffffffffffffffffffffffffffffffff021916908373ffffffffffffffffffffffffffffffffffffffff160217905550600060056000868152602001908152602001600020819055506116088461171c565b6004908051906020019061161d92919061193b565b507f2bdd59583c8e5cc64165e86af2482dbe93e85c98b355b788aa592465b3f6920e611647611714565b8583611651611806565b6040516116619493929190611ebc565b60405180910390a18092505050919050565b61167b611714565b73ffffffffffffffffffffffffffffffffffffffff1660008054906101000a900473ffffffffffffffffffffffffffffffffffffffff1673ffffffffffffffffffffffffffffffffffffffff1614611708576040517f08c379a00000000000000000000000000000000000000000000000000000000081526004016116ff9061205b565b60405180910390fd5b6117118161180e565b50565b600033905090565b6060600060048054905090506000600182611737919061220d565b67ffffffffffffffff8111156117505761174f6123c1565b5b60405190808252806020026020018201604052801561177e5781602001602082028036833780820191505090505b5090506000805b838110156117fa576000600482815481106117a3576117a2612392565b5b906000526020600020015490508681146117e657808484815181106117cb576117ca612392565b5b60200260200101818152505082806117e2906122eb565b9350505b5080806117f2906122eb565b915050611785565b50819350505050919050565b600042905090565b600073ffffffffffffffffffffffffffffffffffffffff168173ffffffffffffffffffffffffffffffffffffffff16141561187e576040517f08c379a000000000000000000000000000000000000000000000000000000000815260040161187590611ffb565b60405180910390fd5b8073ffffffffffffffffffffffffffffffffffffffff1660008054906101000a900473ffffffffffffffffffffffffffffffffffffffff1673ffffffffffffffffffffffffffffffffffffffff167f8be0079c531659141344cd1fd0a4f28419497f9722a3daafe3b4186f6b6457e060405160405180910390a3806000806101000a81548173ffffffffffffffffffffffffffffffffffffffff021916908373ffffffffffffffffffffffffffffffffffffffff16021790555050565b828054828255906000526020600020908101928215611977579160200282015b8281111561197657825182559160200191906001019061195b565b5b5090506119849190611988565b5090565b5b808211156119a1576000816000905550600101611989565b5090565b6000813590506119b48161259a565b92915050565b6000815190506119c98161259a565b92915050565b6000815190506119de816125b1565b92915050565b60008083601f8401126119fa576119f96123f5565b5b8235905067ffffffffffffffff811115611a1757611a166123f0565b5b602083019150836001820283011115611a3357611a326123fa565b5b9250929050565b600081359050611a49816125c8565b92915050565b600060208284031215611a6557611a64612404565b5b6000611a73848285016119a5565b91505092915050565b600060208284031215611a9257611a91612404565b5b6000611aa0848285016119ba565b91505092915050565b600080600080600060808688031215611ac557611ac4612404565b5b6000611ad3888289016119a5565b9550506020611ae4888289016119a5565b9450506040611af588828901611a3a565b935050606086013567ffffffffffffffff811115611b1657611b156123ff565b5b611b22888289016119e4565b92509250509295509295909350565b600060208284031215611b4757611b46612404565b5b6000611b55848285016119cf565b91505092915050565b600060208284031215611b7457611b73612404565b5b6000611b8284828501611a3a565b91505092915050565b60008060408385031215611ba257611ba1612404565b5b6000611bb085828601611a3a565b9250506020611bc185828601611a3a565b9150509250929050565b6000611bd78383611df7565b60808301905092915050565b6000611bef8383611e4c565b60208301905092915050565b611c04816122b5565b82525050565b611c1381612241565b82525050565b611c2281612241565b82525050565b6000611c338261211f565b611c3d818561214f565b9350611c48836120ff565b8060005b83811015611c79578151611c608882611bcb565b9750611c6b83612135565b925050600181019050611c4c565b5085935050505092915050565b6000611c918261212a565b611c9b8185612160565b9350611ca68361210f565b8060005b83811015611cd7578151611cbe8882611be3565b9750611cc983612142565b925050600181019050611caa565b5085935050505092915050565b611ced81612253565b82525050565b611cfc8161225f565b82525050565b6000611d0f603a83612171565b9150611d1a82612409565b604082019050919050565b6000611d32602683612171565b9150611d3d82612458565b604082019050919050565b6000611d55601e83612171565b9150611d60826124a7565b602082019050919050565b6000611d78600c83612171565b9150611d83826124d0565b602082019050919050565b6000611d9b602083612171565b9150611da6826124f9565b602082019050919050565b6000611dbe601883612171565b9150611dc982612522565b602082019050919050565b6000611de1602883612171565b9150611dec8261254b565b604082019050919050565b608082016000820151611e0d6000850182611c0a565b506020820151611e206020850182611c0a565b506040820151611e336040850182611e4c565b506060820151611e466060850182611e4c565b50505050565b611e55816122ab565b82525050565b611e64816122ab565b82525050565b6000602082019050611e7f6000830184611c19565b92915050565b6000606082019050611e9a6000830186611bfb565b611ea76020830185611c19565b611eb46040830184611e5b565b949350505050565b6000608082019050611ed16000830187611bfb565b611ede6020830186611e5b565b611eeb6040830185611e5b565b611ef86060830184611e5b565b95945050505050565b6000606082019050611f166000830186611c19565b611f236020830185611bfb565b611f306040830184611e5b565b949350505050565b6000604082019050611f4d6000830185611c19565b611f5a6020830184611e5b565b9392505050565b60006020820190508181036000830152611f7b8184611c28565b905092915050565b60006020820190508181036000830152611f9d8184611c86565b905092915050565b6000602082019050611fba6000830184611ce4565b92915050565b6000602082019050611fd56000830184611cf3565b92915050565b60006020820190508181036000830152611ff481611d02565b9050919050565b6000602082019050818103600083015261201481611d25565b9050919050565b6000602082019050818103600083015261203481611d48565b9050919050565b6000602082019050818103600083015261205481611d6b565b9050919050565b6000602082019050818103600083015261207481611d8e565b9050919050565b6000602082019050818103600083015261209481611db1565b9050919050565b600060208201905081810360008301526120b481611dd4565b9050919050565b60006020820190506120d06000830184611e5b565b92915050565b60006040820190506120eb6000830185611e5b565b6120f86020830184611e5b565b9392505050565b6000819050602082019050919050565b6000819050602082019050919050565b600081519050919050565b600081519050919050565b6000602082019050919050565b6000602082019050919050565b600082825260208201905092915050565b600082825260208201905092915050565b600082825260208201905092915050565b600061218d826122ab565b9150612198836122ab565b9250826121a8576121a7612363565b5b828204905092915050565b60006121be826122ab565b91506121c9836122ab565b9250817fffffffffffffffffffffffffffffffffffffffffffffffffffffffffffffffff048311821515161561220257612201612334565b5b828202905092915050565b6000612218826122ab565b9150612223836122ab565b92508282101561223657612235612334565b5b828203905092915050565b600061224c8261228b565b9050919050565b60008115159050919050565b60007fffffffff0000000000000000000000000000000000000000000000000000000082169050919050565b600073ffffffffffffffffffffffffffffffffffffffff82169050919050565b6000819050919050565b60006122c0826122c7565b9050919050565b60006122d2826122d9565b9050919050565b60006122e48261228b565b9050919050565b60006122f6826122ab565b91507fffffffffffffffffffffffffffffffffffffffffffffffffffffffffffffffff82141561232957612328612334565b5b600182019050919050565b7f4e487b7100000000000000000000000000000000000000000000000000000000600052601160045260246000fd5b7f4e487b7100000000000000000000000000000000000000000000000000000000600052601260045260246000fd5b7f4e487b7100000000000000000000000000000000000000000000000000000000600052603260045260246000fd5b7f4e487b7100000000000000000000000000000000000000000000000000000000600052604160045260246000fd5b600080fd5b600080fd5b600080fd5b600080fd5b600080fd5b7f596f752068617665206e6f207065726d697373696f6e20746f2063726561746560008201527f2073656c6c206f7264657220666f72207468697320746f6b656e000000000000602082015250565b7f4f776e61626c653a206e6577206f776e657220697320746865207a65726f206160008201527f6464726573730000000000000000000000000000000000000000000000000000602082015250565b7f466f7262696464656e20746f2063616e63656c2073656c6c206f726465720000600082015250565b7f5a65726f20616464726573730000000000000000000000000000000000000000600082015250565b7f4f776e61626c653a2063616c6c6572206973206e6f7420746865206f776e6572600082015250565b7f546f6b656e20686173206e6f74206265656e2061646465640000000000000000600082015250565b7f43616e206e6f74206372656174652073656c6c206f7264657220666f7220746860008201527f697320746f6b656e000000000000000000000000000000000000000000000000602082015250565b6125a381612241565b81146125ae57600080fd5b50565b6125ba81612253565b81146125c557600080fd5b50565b6125d1816122ab565b81146125dc57600080fd5b5056fea26469706673582212209628610fcd93f489b1a1fa42fbc5fc5b0843bdb38c623b718d1841207f24a42464736f6c63430008070033",
  "immutableReferences": {},
  "source": "// SPDX-License-Identifier: MIT\r\n\r\npragma solidity ^0.8.0;\r\n\r\nimport \"./utils/Ownable.sol\";\r\nimport \"./interfaces/IERC721Receiver.sol\";\r\nimport \"./interfaces/IERC20.sol\";\r\nimport \"./interfaces/IERC721.sol\";\r\n\r\ncontract ElemonMarketplace is Ownable, IERC721Receiver{\r\n    struct MarketHistory{\r\n        address buyer;\r\n        address seller;\r\n        uint256 price;\r\n        uint256 time;\r\n    }\r\n    \r\n    address public _elemonTokenAddress;\r\n    address public _elemonNftAddress;\r\n    \r\n    uint256 private _feePercent;       //Multipled by 1000\r\n    uint256 constant public MULTIPLIER = 1000;\r\n    \r\n    uint256[] internal _tokens;\r\n    \r\n    //Mapping between tokenId and token price\r\n    mapping(uint256 => uint256) internal _tokenPrices;\r\n    \r\n    //Mapping between tokenId and owner of tokenId\r\n    mapping(uint256 => address) internal _tokenOwners;\r\n    \r\n    mapping(uint256 => MarketHistory[]) internal _marketHistories;\r\n    \r\n    constructor(address tokenAddress, address nftAddress){\r\n        _elemonTokenAddress = tokenAddress;\r\n        _elemonNftAddress = nftAddress;\r\n        _feePercent = 2000;        //2%\r\n    }\r\n    \r\n    /**\r\n     * @dev Create a sell order to sell ELEMON category\r\n     */\r\n    function createSellOrder(uint256 tokenId, uint256 price) external returns(bool){\r\n        //Validate\r\n        require(_tokenOwners[tokenId] == address(0), \"Can not create sell order for this token\");\r\n        IERC721 elemonContract = IERC721(_elemonNftAddress);\r\n        require(elemonContract.ownerOf(tokenId) == _msgSender(), \"You have no permission to create sell order for this token\");\r\n        \r\n        //Transfer Elemon NFT to contract\r\n        elemonContract.safeTransferFrom(_msgSender(), address(this), tokenId);\r\n        \r\n        _tokenOwners[tokenId] = _msgSender();\r\n        _tokenPrices[tokenId] = price;\r\n        _tokens.push(tokenId);\r\n        \r\n        emit NewSellOrderCreated(_msgSender(), tokenId, price, _now());\r\n        \r\n        return true;\r\n    }\r\n    \r\n    /**\r\n     * @dev User that created sell order can cancel that order\r\n     */ \r\n    function cancelSellOrder(uint256 tokenId) external returns(bool){\r\n        require(_tokenOwners[tokenId] == _msgSender(), \"Forbidden to cancel sell order\");\r\n\r\n        IERC721 elemonContract = IERC721(_elemonNftAddress);\r\n        //Transfer Elemon NFT from contract to sender\r\n        elemonContract.safeTransferFrom(address(this), _msgSender(), tokenId);\r\n        \r\n        _tokenOwners[tokenId] = address(0);\r\n        _tokenPrices[tokenId] = 0;\r\n        _tokens = _removeFromTokens(tokenId);\r\n        \r\n        emit SellingOrderCanceled(tokenId, _now());\r\n        \r\n        return true;\r\n    }\r\n    \r\n    /**\r\n     * @dev Get all active tokens that can be purchased \r\n     */ \r\n    function getTokens() external view returns(uint256[] memory){\r\n        return _tokens;\r\n    }\r\n    \r\n    /**\r\n     * @dev Get token info about price and owner\r\n     */ \r\n    function getTokenInfo(uint tokenId) external view returns(address, uint){\r\n        return (_tokenOwners[tokenId], _tokenPrices[tokenId]);\r\n    }\r\n    \r\n    /**\r\n     * @dev Get purchase fee percent, this fee is for seller\r\n     */ \r\n    function getFeePercent() external view returns(uint){\r\n        return _feePercent;\r\n    }\r\n    \r\n    function getMarketHistories(uint256 tokenId) external view returns(MarketHistory[] memory){\r\n        return _marketHistories[tokenId];\r\n    }\r\n    \r\n    /**\r\n     * @dev Get token price\r\n     */ \r\n    function getTokenPrice(uint256 tokenId) external view returns(uint){\r\n        return _tokenPrices[tokenId];\r\n    }\r\n    \r\n    /**\r\n     * @dev Get token's owner\r\n     */ \r\n    function getTokenOwner(uint256 tokenId) external view returns(address){\r\n        return _tokenOwners[tokenId];\r\n    }\r\n    \r\n    /**\r\n     * @dev User purchases a ELEMON category\r\n     */ \r\n    function purchase(uint tokenId) external returns(uint){\r\n        address tokenOwner = _tokenOwners[tokenId];\r\n        require(tokenOwner != address(0),\"Token has not been added\");\r\n        \r\n        uint256 tokenPrice = _tokenPrices[tokenId];\r\n        \r\n        if(tokenPrice > 0){\r\n            IERC20 elemonTokenContract = IERC20(_elemonTokenAddress);    \r\n            require(elemonTokenContract.transferFrom(_msgSender(), address(this), tokenPrice));\r\n            uint256 feeAmount = 0;\r\n            if(_feePercent > 0){\r\n                feeAmount = tokenPrice * _feePercent / 100 / MULTIPLIER;\r\n                require(elemonTokenContract.transfer(owner(), feeAmount));\r\n            }\r\n            require(elemonTokenContract.transfer(tokenOwner, tokenPrice - feeAmount));\r\n        }\r\n        \r\n        //Transfer Elemon NFT from contract to sender\r\n        IERC721(_elemonNftAddress).transferFrom(address(this),_msgSender(), tokenId);\r\n        \r\n        _marketHistories[tokenId].push(MarketHistory({\r\n            buyer: _msgSender(),\r\n            seller: _tokenOwners[tokenId],\r\n            price: tokenPrice,\r\n            time: block.timestamp\r\n        }));\r\n        \r\n        _tokenOwners[tokenId] = address(0);\r\n        _tokenPrices[tokenId] = 0;\r\n        _tokens = _removeFromTokens(tokenId);\r\n        \r\n        emit Purchased(_msgSender(), tokenId, tokenPrice, _now());\r\n        \r\n        return tokenPrice;\r\n    }\r\n    \r\n    /**\r\n     * @dev Set ELEMON contract address \r\n     */\r\n    function setElemonContractAddress(address newAddress) external onlyOwner{\r\n        require(newAddress != address(0), \"Zero address\");\r\n        _elemonNftAddress = newAddress;\r\n    }\r\n    \r\n    /**\r\n     * @dev Set ELEMON token address \r\n     */\r\n    function setElemonTokenAddress(address newAddress) external onlyOwner{\r\n        require(newAddress != address(0), \"Zero address\");\r\n        _elemonTokenAddress = newAddress;\r\n    }\r\n    \r\n    /**\r\n     * @dev Get ELEMON token address \r\n     */\r\n    function setFeePercent(uint feePercent) external onlyOwner{\r\n        _feePercent = feePercent;\r\n    }\r\n    \r\n    /**\r\n     * @dev Remove token item by value from _tokens and returns new list _tokens\r\n     */ \r\n    function _removeFromTokens(uint tokenId) internal view returns(uint256[] memory){\r\n        uint256 tokenCount = _tokens.length;\r\n        uint256[] memory result = new uint256[](tokenCount-1);\r\n        uint256 resultIndex = 0;\r\n        for(uint tokenIndex = 0; tokenIndex < tokenCount; tokenIndex++){\r\n            uint tokenItemId = _tokens[tokenIndex];\r\n            if(tokenItemId != tokenId){\r\n                result[resultIndex] = tokenItemId;\r\n                resultIndex++;\r\n            }\r\n        }\r\n        \r\n        return result;\r\n    }\r\n    \r\n    function onERC721Received(address operator, address from, uint256 tokenId, bytes calldata data) external view override returns (bytes4){\r\n        return bytes4(\r\n                keccak256(\"onERC721Received(address,address,uint256,bytes)\")\r\n            );\r\n    }\r\n    \r\n    event NewSellOrderCreated(address seller, uint256 tokenId, uint256 price, uint256 time);\r\n    event Purchased(address buyer, uint256 tokenId, uint256 price, uint256 time);\r\n    event SellingOrderCanceled(uint256 tokenId, uint256 time);\r\n}",
  "sourcePath": "D:/B/Elemon/contracts/contracts/ElemonMarketplace.sol",
  "compiler": {
    "name": "solc",
    "version": "0.8.7+commit.e28d00a7.Emscripten.clang"
  },
  "schemaVersion": "3.3.1",
  "updatedAt": "2021-09-01T04:19:51.047Z",
  "devdoc": {
    "kind": "dev",
    "methods": {
      "cancelSellOrder(uint256)": {
        "details": "User that created sell order can cancel that order"
      },
      "createSellOrder(uint256,uint256)": {
        "details": "Create a sell order to sell ELEMON category"
      },
      "getFeePercent()": {
        "details": "Get purchase fee percent, this fee is for seller"
      },
      "getTokenInfo(uint256)": {
        "details": "Get token info about price and owner"
      },
      "getTokenOwner(uint256)": {
        "details": "Get token's owner"
      },
      "getTokenPrice(uint256)": {
        "details": "Get token price"
      },
      "getTokens()": {
        "details": "Get all active tokens that can be purchased "
      },
      "owner()": {
        "details": "Returns the address of the current owner."
      },
      "purchase(uint256)": {
        "details": "User purchases a ELEMON category"
      },
      "renounceOwnership()": {
        "details": "Leaves the contract without owner. It will not be possible to call `onlyOwner` functions anymore. Can only be called by the current owner. NOTE: Renouncing ownership will leave the contract without an owner, thereby removing any functionality that is only available to the owner."
      },
      "setElemonContractAddress(address)": {
        "details": "Set ELEMON contract address "
      },
      "setElemonTokenAddress(address)": {
        "details": "Set ELEMON token address "
      },
      "setFeePercent(uint256)": {
        "details": "Get ELEMON token address "
      },
      "transferOwnership(address)": {
        "details": "Transfers ownership of the contract to a new account (`newOwner`). Can only be called by the current owner."
      }
    },
    "version": 1
  },
  "userdoc": {
    "kind": "user",
    "methods": {},
    "version": 1
  }
}