{
  "contractName": "Runnable",
  "abi": [
    {
      "inputs": [],
      "stateMutability": "nonpayable",
      "type": "constructor"
    },
    {
      "anonymous": false,
      "inputs": [
        {
          "indexed": true,
          "internalType": "address",
          "name": "previousOwner",
          "type": "address"
        },
        {
          "indexed": true,
          "internalType": "address",
          "name": "newOwner",
          "type": "address"
        }
      ],
      "name": "OwnershipTransferred",
      "type": "event"
    },
    {
      "inputs": [],
      "name": "_isRunning",
      "outputs": [
        {
          "internalType": "bool",
          "name": "",
          "type": "bool"
        }
      ],
      "stateMutability": "view",
      "type": "function"
    },
    {
      "inputs": [],
      "name": "owner",
      "outputs": [
        {
          "internalType": "address",
          "name": "",
          "type": "address"
        }
      ],
      "stateMutability": "view",
      "type": "function"
    },
    {
      "inputs": [],
      "name": "renounceOwnership",
      "outputs": [],
      "stateMutability": "nonpayable",
      "type": "function"
    },
    {
      "inputs": [
        {
          "internalType": "address",
          "name": "newOwner",
          "type": "address"
        }
      ],
      "name": "transferOwnership",
      "outputs": [],
      "stateMutability": "nonpayable",
      "type": "function"
    },
    {
      "inputs": [],
      "name": "toggleRunning",
      "outputs": [],
      "stateMutability": "nonpayable",
      "type": "function"
    }
  ],
  "bytecode": "0x608060405234801561001057600080fd5b5061001f6100e660201b60201c565b6000806101000a81548173ffffffffffffffffffffffffffffffffffffffff021916908373ffffffffffffffffffffffffffffffffffffffff16021790555061006c6100e660201b60201c565b73ffffffffffffffffffffffffffffffffffffffff16600073ffffffffffffffffffffffffffffffffffffffff167f8be0079c531659141344cd1fd0a4f28419497f9722a3daafe3b4186f6b6457e060405160405180910390a36001600060146101000a81548160ff0219169083151502179055506100ee565b600033905090565b610723806100fd6000396000f3fe608060405234801561001057600080fd5b50600436106100575760003560e01c806303dedb121461005c57806358d45c1714610066578063715018a6146100845780638da5cb5b1461008e578063f2fde38b146100ac575b600080fd5b6100646100c8565b005b61006e610189565b60405161007b91906105af565b60405180910390f35b61008c61019c565b005b6100966102ef565b6040516100a39190610594565b60405180910390f35b6100c660048036038101906100c19190610503565b610318565b005b6100d06103b9565b73ffffffffffffffffffffffffffffffffffffffff1660008054906101000a900473ffffffffffffffffffffffffffffffffffffffff1673ffffffffffffffffffffffffffffffffffffffff161461015d576040517f08c379a0000000000000000000000000000000000000000000000000000000008152600401610154906105ea565b60405180910390fd5b600060149054906101000a900460ff1615600060146101000a81548160ff021916908315150217905550565b600060149054906101000a900460ff1681565b6101a46103b9565b73ffffffffffffffffffffffffffffffffffffffff1660008054906101000a900473ffffffffffffffffffffffffffffffffffffffff1673ffffffffffffffffffffffffffffffffffffffff1614610231576040517f08c379a0000000000000000000000000000000000000000000000000000000008152600401610228906105ea565b60405180910390fd5b600073ffffffffffffffffffffffffffffffffffffffff1660008054906101000a900473ffffffffffffffffffffffffffffffffffffffff1673ffffffffffffffffffffffffffffffffffffffff167f8be0079c531659141344cd1fd0a4f28419497f9722a3daafe3b4186f6b6457e060405160405180910390a360008060006101000a81548173ffffffffffffffffffffffffffffffffffffffff021916908373ffffffffffffffffffffffffffffffffffffffff160217905550565b60008060009054906101000a900473ffffffffffffffffffffffffffffffffffffffff16905090565b6103206103b9565b73ffffffffffffffffffffffffffffffffffffffff1660008054906101000a900473ffffffffffffffffffffffffffffffffffffffff1673ffffffffffffffffffffffffffffffffffffffff16146103ad576040517f08c379a00000000000000000000000000000000000000000000000000000000081526004016103a4906105ea565b60405180910390fd5b6103b6816103c1565b50565b600033905090565b600073ffffffffffffffffffffffffffffffffffffffff168173ffffffffffffffffffffffffffffffffffffffff161415610431576040517f08c379a0000000000000000000000000000000000000000000000000000000008152600401610428906105ca565b60405180910390fd5b8073ffffffffffffffffffffffffffffffffffffffff1660008054906101000a900473ffffffffffffffffffffffffffffffffffffffff1673ffffffffffffffffffffffffffffffffffffffff167f8be0079c531659141344cd1fd0a4f28419497f9722a3daafe3b4186f6b6457e060405160405180910390a3806000806101000a81548173ffffffffffffffffffffffffffffffffffffffff021916908373ffffffffffffffffffffffffffffffffffffffff16021790555050565b6000813590506104fd816106d6565b92915050565b60006020828403121561051957610518610659565b5b6000610527848285016104ee565b91505092915050565b6105398161061b565b82525050565b6105488161062d565b82525050565b600061055b60268361060a565b91506105668261065e565b604082019050919050565b600061057e60208361060a565b9150610589826106ad565b602082019050919050565b60006020820190506105a96000830184610530565b92915050565b60006020820190506105c4600083018461053f565b92915050565b600060208201905081810360008301526105e38161054e565b9050919050565b6000602082019050818103600083015261060381610571565b9050919050565b600082825260208201905092915050565b600061062682610639565b9050919050565b60008115159050919050565b600073ffffffffffffffffffffffffffffffffffffffff82169050919050565b600080fd5b7f4f776e61626c653a206e6577206f776e657220697320746865207a65726f206160008201527f6464726573730000000000000000000000000000000000000000000000000000602082015250565b7f4f776e61626c653a2063616c6c6572206973206e6f7420746865206f776e6572600082015250565b6106df8161061b565b81146106ea57600080fd5b5056fea264697066735822122007714cd0077aabdf198997d35830fae2371e42bac7bfbefcb5b7e42ed27a3b9964736f6c63430008070033",
  "immutableReferences": {},
  "source": "// SPDX-License-Identifier: MIT\r\n\r\npragma solidity ^0.8.0;\r\n\r\nimport \"./Ownable.sol\";\r\n\r\ncontract Runnable is Ownable{\r\n    modifier whenRunning{\r\n        require(_isRunning, \"Paused\");\r\n        _;\r\n    }\r\n    \r\n    modifier whenNotRunning{\r\n        require(!_isRunning, \"Running\");\r\n        _;\r\n    }\r\n    \r\n    bool public _isRunning;\r\n    \r\n    constructor(){\r\n        _isRunning = true;\r\n    }\r\n    \r\n    function toggleRunning() public onlyOwner{\r\n        _isRunning = !_isRunning;\r\n    }\r\n}",
  "sourcePath": "D:\\B\\Elemon\\contracts\\contracts\\utils\\Runnable.sol",
  "compiler": {
    "name": "solc",
    "version": "0.8.7+commit.e28d00a7.Emscripten.clang"
  },
  "schemaVersion": "3.3.1",
  "updatedAt": "2021-09-01T04:19:51.177Z",
  "devdoc": {
    "kind": "dev",
    "methods": {
      "owner()": {
        "details": "Returns the address of the current owner."
      },
      "renounceOwnership()": {
        "details": "Leaves the contract without owner. It will not be possible to call `onlyOwner` functions anymore. Can only be called by the current owner. NOTE: Renouncing ownership will leave the contract without an owner, thereby removing any functionality that is only available to the owner."
      },
      "transferOwnership(address)": {
        "details": "Transfers ownership of the contract to a new account (`newOwner`). Can only be called by the current owner."
      }
    },
    "version": 1
  },
  "userdoc": {
    "kind": "user",
    "methods": {},
    "version": 1
  }
}